{
  "_format": "hh-sol-artifact-1",
  "contractName": "MarketPlace",
  "sourceName": "contracts/MarketPlace.sol",
  "abi": [
    {
      "inputs": [
        {
          "internalType": "uint256",
          "name": "_idSale",
          "type": "uint256"
        }
      ],
      "name": "buyProduct",
      "outputs": [],
      "stateMutability": "payable",
      "type": "function"
    },
    {
      "inputs": [
        {
          "internalType": "uint256",
          "name": "price",
          "type": "uint256"
        }
      ],
      "name": "calculatePrice",
      "outputs": [
        {
          "internalType": "uint256",
          "name": "",
          "type": "uint256"
        }
      ],
      "stateMutability": "nonpayable",
      "type": "function"
    },
    {
      "inputs": [
        {
          "internalType": "uint256",
          "name": "_idSale",
          "type": "uint256"
        }
      ],
      "name": "cancelSale",
      "outputs": [],
      "stateMutability": "nonpayable",
      "type": "function"
    },
    {
      "inputs": [
        {
          "internalType": "uint256",
          "name": "fee",
          "type": "uint256"
        }
      ],
      "name": "changeMarketFee",
      "outputs": [],
      "stateMutability": "nonpayable",
      "type": "function"
    },
    {
      "inputs": [
        {
          "internalType": "uint256",
          "name": "_id",
          "type": "uint256"
        }
      ],
      "name": "getProduct",
      "outputs": [
        {
          "components": [
            {
              "internalType": "uint256",
              "name": "uniqueId",
              "type": "uint256"
            },
            {
              "internalType": "string",
              "name": "title",
              "type": "string"
            },
            {
              "internalType": "string",
              "name": "description",
              "type": "string"
            },
            {
              "internalType": "string",
              "name": "compositor",
              "type": "string"
            },
            {
              "internalType": "string",
              "name": "artist",
              "type": "string"
            },
            {
              "internalType": "address",
              "name": "owner",
              "type": "address"
            }
          ],
          "internalType": "struct MarketPlace.Product",
          "name": "",
          "type": "tuple"
        }
      ],
      "stateMutability": "view",
      "type": "function"
    },
    {
      "inputs": [
        {
          "internalType": "uint256",
          "name": "_id",
          "type": "uint256"
        }
      ],
      "name": "getSale",
      "outputs": [
        {
          "components": [
            {
              "internalType": "uint256",
              "name": "saleId",
              "type": "uint256"
            },
            {
              "internalType": "uint256",
              "name": "productId",
              "type": "uint256"
            },
            {
              "internalType": "uint256",
              "name": "price",
              "type": "uint256"
            },
            {
              "internalType": "address",
              "name": "seller",
              "type": "address"
            },
            {
              "internalType": "address",
              "name": "buyer",
              "type": "address"
            },
            {
              "internalType": "enum MarketPlace.State",
              "name": "state",
              "type": "uint8"
            }
          ],
          "internalType": "struct MarketPlace.Sale",
          "name": "",
          "type": "tuple"
        }
      ],
      "stateMutability": "view",
      "type": "function"
    },
    {
      "inputs": [],
      "name": "incrementCounter",
      "outputs": [
        {
          "internalType": "uint256",
          "name": "",
          "type": "uint256"
        }
      ],
      "stateMutability": "nonpayable",
      "type": "function"
    },
    {
      "inputs": [
        {
          "internalType": "string",
          "name": "_title",
          "type": "string"
        },
        {
          "internalType": "string",
          "name": "_description",
          "type": "string"
        },
        {
          "internalType": "string",
          "name": "_compositor",
          "type": "string"
        },
        {
          "internalType": "string",
          "name": "_artist",
          "type": "string"
        }
      ],
      "name": "newProduct",
      "outputs": [],
      "stateMutability": "nonpayable",
      "type": "function"
    },
    {
      "inputs": [
        {
          "internalType": "uint256",
          "name": "_id",
          "type": "uint256"
        },
        {
          "internalType": "uint256",
          "name": "_price",
          "type": "uint256"
        }
      ],
      "name": "newSale",
      "outputs": [],
      "stateMutability": "nonpayable",
      "type": "function"
    },
    {
      "inputs": [
        {
          "internalType": "uint256",
          "name": "",
          "type": "uint256"
        }
      ],
      "name": "products",
      "outputs": [
        {
          "internalType": "uint256",
          "name": "uniqueId",
          "type": "uint256"
        },
        {
          "internalType": "string",
          "name": "title",
          "type": "string"
        },
        {
          "internalType": "string",
          "name": "description",
          "type": "string"
        },
        {
          "internalType": "string",
          "name": "compositor",
          "type": "string"
        },
        {
          "internalType": "string",
          "name": "artist",
          "type": "string"
        },
        {
          "internalType": "address",
          "name": "owner",
          "type": "address"
        }
      ],
      "stateMutability": "view",
      "type": "function"
    },
    {
      "inputs": [
        {
          "internalType": "address",
          "name": "",
          "type": "address"
        }
      ],
      "name": "roles",
      "outputs": [
        {
          "internalType": "enum MarketPlace.Role",
          "name": "",
          "type": "uint8"
        }
      ],
      "stateMutability": "view",
      "type": "function"
    },
    {
      "inputs": [
        {
          "internalType": "uint256",
          "name": "",
          "type": "uint256"
        }
      ],
      "name": "sales",
      "outputs": [
        {
          "internalType": "uint256",
          "name": "saleId",
          "type": "uint256"
        },
        {
          "internalType": "uint256",
          "name": "productId",
          "type": "uint256"
        },
        {
          "internalType": "uint256",
          "name": "price",
          "type": "uint256"
        },
        {
          "internalType": "address",
          "name": "seller",
          "type": "address"
        },
        {
          "internalType": "address",
          "name": "buyer",
          "type": "address"
        },
        {
          "internalType": "enum MarketPlace.State",
          "name": "state",
          "type": "uint8"
        }
      ],
      "stateMutability": "view",
      "type": "function"
    }
  ],
  "bytecode": "0x60806040526001600055600560015534801561001a57600080fd5b5061294e8061002a6000396000f3fe6080604052600436106100a75760003560e01c8063ae10426511610064578063ae104265146101c4578063b5f522f714610201578063b9db15b414610243578063bd94b00514610280578063d8f6d596146102a9578063ff36cae3146102e6576100a7565b806318651f58146100ac5780635b34b966146100d55780636138dd07146101005780637acc0b20146101295780638642269e1461016b5780639937464214610187575b600080fd5b3480156100b857600080fd5b506100d360048036038101906100ce9190611bfd565b61030f565b005b3480156100e157600080fd5b506100ea6104d8565b6040516100f79190611ced565b60405180910390f35b34801561010c57600080fd5b5061012760048036038101906101229190611d34565b6104f5565b005b34801561013557600080fd5b50610150600480360381019061014b9190611d34565b6105b4565b60405161016296959493929190611e21565b60405180910390f35b61018560048036038101906101809190611d34565b610830565b005b34801561019357600080fd5b506101ae60048036038101906101a99190611eca565b610eb4565b6040516101bb9190611f6e565b60405180910390f35b3480156101d057600080fd5b506101eb60048036038101906101e69190611d34565b610ed4565b6040516101f89190611ced565b60405180910390f35b34801561020d57600080fd5b5061022860048036038101906102239190611d34565b610f02565b60405161023a96959493929190611fd1565b60405180910390f35b34801561024f57600080fd5b5061026a60048036038101906102659190611d34565b610f8b565b6040516102779190612138565b60405180910390f35b34801561028c57600080fd5b506102a760048036038101906102a29190611d34565b6112ad565b005b3480156102b557600080fd5b506102d060048036038101906102cb9190611d34565b6115e2565b6040516102dd91906121e4565b60405180910390f35b3480156102f257600080fd5b5061030d600480360381019061030891906121ff565b611761565b005b600080600281111561032457610323611ef7565b5b600460003373ffffffffffffffffffffffffffffffffffffffff1673ffffffffffffffffffffffffffffffffffffffff16815260200190815260200160002060009054906101000a900460ff16600281111561038357610382611ef7565b5b146103c3576040517f08c379a00000000000000000000000000000000000000000000000000000000081526004016103ba9061228b565b60405180910390fd5b6040518060c0016040528060005481526020018681526020018581526020018481526020018381526020013373ffffffffffffffffffffffffffffffffffffffff16815250600260008054815260200190815260200160002060008201518160000155602082015181600101908161043b91906124b7565b50604082015181600201908161045191906124b7565b50606082015181600301908161046791906124b7565b50608082015181600401908161047d91906124b7565b5060a08201518160050160006101000a81548173ffffffffffffffffffffffffffffffffffffffff021916908373ffffffffffffffffffffffffffffffffffffffff1602179055509050506104d06104d8565b505050505050565b60008060008154809291906104ec906125b8565b91905055905090565b600080600281111561050a57610509611ef7565b5b600460003373ffffffffffffffffffffffffffffffffffffffff1673ffffffffffffffffffffffffffffffffffffffff16815260200190815260200160002060009054906101000a900460ff16600281111561056957610568611ef7565b5b146105a9576040517f08c379a00000000000000000000000000000000000000000000000000000000081526004016105a09061228b565b60405180910390fd5b816001819055505050565b60026020528060005260406000206000915090508060000154908060010180546105dd906122da565b80601f0160208091040260200160405190810160405280929190818152602001828054610609906122da565b80156106565780601f1061062b57610100808354040283529160200191610656565b820191906000526020600020905b81548152906001019060200180831161063957829003601f168201915b50505050509080600201805461066b906122da565b80601f0160208091040260200160405190810160405280929190818152602001828054610697906122da565b80156106e45780601f106106b9576101008083540402835291602001916106e4565b820191906000526020600020905b8154815290600101906020018083116106c757829003601f168201915b5050505050908060030180546106f9906122da565b80601f0160208091040260200160405190810160405280929190818152602001828054610725906122da565b80156107725780601f1061074757610100808354040283529160200191610772565b820191906000526020600020905b81548152906001019060200180831161075557829003601f168201915b505050505090806004018054610787906122da565b80601f01602080910402602001604051908101604052809291908181526020018280546107b3906122da565b80156108005780601f106107d557610100808354040283529160200191610800565b820191906000526020600020905b8154815290600101906020018083116107e357829003601f168201915b5050505050908060050160009054906101000a900473ffffffffffffffffffffffffffffffffffffffff16905086565b806000600281111561084557610844611ef7565b5b6003600083815260200190815260200160002060040160149054906101000a900460ff16600281111561087b5761087a611ef7565b5b146108bb576040517f08c379a00000000000000000000000000000000000000000000000000000000081526004016108b290612672565b60405180910390fd5b60006003600084815260200190815260200160002090506000600260008360010154815260200190815260200160002090506000826000015403610934576040517f08c379a000000000000000000000000000000000000000000000000000000000815260040161092b906126de565b60405180910390fd5b346109428360020154610ed4565b1115610983576040517f08c379a000000000000000000000000000000000000000000000000000000000815260040161097a9061274a565b60405180910390fd5b8060050160009054906101000a900473ffffffffffffffffffffffffffffffffffffffff1673ffffffffffffffffffffffffffffffffffffffff166108fc349081150290604051600060405180830381858888f193505050501580156109ed573d6000803e3d6000fd5b506040518060c00160405280858152602001836001015481526020013481526020018360030160009054906101000a900473ffffffffffffffffffffffffffffffffffffffff1673ffffffffffffffffffffffffffffffffffffffff1681526020013373ffffffffffffffffffffffffffffffffffffffff16815260200160016002811115610a7f57610a7e611ef7565b5b8152506003600086815260200190815260200160002060008201518160000155602082015181600101556040820151816002015560608201518160030160006101000a81548173ffffffffffffffffffffffffffffffffffffffff021916908373ffffffffffffffffffffffffffffffffffffffff16021790555060808201518160040160006101000a81548173ffffffffffffffffffffffffffffffffffffffff021916908373ffffffffffffffffffffffffffffffffffffffff16021790555060a08201518160040160146101000a81548160ff02191690836002811115610b6c57610b6b611ef7565b5b02179055509050506040518060c0016040528083600101548152602001826001018054610b98906122da565b80601f0160208091040260200160405190810160405280929190818152602001828054610bc4906122da565b8015610c115780601f10610be657610100808354040283529160200191610c11565b820191906000526020600020905b815481529060010190602001808311610bf457829003601f168201915b50505050508152602001826002018054610c2a906122da565b80601f0160208091040260200160405190810160405280929190818152602001828054610c56906122da565b8015610ca35780601f10610c7857610100808354040283529160200191610ca3565b820191906000526020600020905b815481529060010190602001808311610c8657829003601f168201915b50505050508152602001826003018054610cbc906122da565b80601f0160208091040260200160405190810160405280929190818152602001828054610ce8906122da565b8015610d355780601f10610d0a57610100808354040283529160200191610d35565b820191906000526020600020905b815481529060010190602001808311610d1857829003601f168201915b50505050508152602001826004018054610d4e906122da565b80601f0160208091040260200160405190810160405280929190818152602001828054610d7a906122da565b8015610dc75780601f10610d9c57610100808354040283529160200191610dc7565b820191906000526020600020905b815481529060010190602001808311610daa57829003601f168201915b505050505081526020013373ffffffffffffffffffffffffffffffffffffffff168152506002600084600101548152602001908152602001600020600082015181600001556020820151816001019081610e2191906124b7565b506040820151816002019081610e3791906124b7565b506060820151816003019081610e4d91906124b7565b506080820151816004019081610e6391906124b7565b5060a08201518160050160006101000a81548173ffffffffffffffffffffffffffffffffffffffff021916908373ffffffffffffffffffffffffffffffffffffffff16021790555090505050505050565b60046020528060005260406000206000915054906101000a900460ff1681565b60006064600154610ee59190612799565b82610ef091906127ca565b82610efb919061280c565b9050919050565b60036020528060005260406000206000915090508060000154908060010154908060020154908060030160009054906101000a900473ffffffffffffffffffffffffffffffffffffffff16908060040160009054906101000a900473ffffffffffffffffffffffffffffffffffffffff16908060040160149054906101000a900460ff16905086565b610f936119e3565b60006002600084815260200190815260200160002090506000816000015403610ff1576040517f08c379a0000000000000000000000000000000000000000000000000000000008152600401610fe89061288c565b60405180910390fd5b806040518060c001604052908160008201548152602001600182018054611017906122da565b80601f0160208091040260200160405190810160405280929190818152602001828054611043906122da565b80156110905780601f1061106557610100808354040283529160200191611090565b820191906000526020600020905b81548152906001019060200180831161107357829003601f168201915b505050505081526020016002820180546110a9906122da565b80601f01602080910402602001604051908101604052809291908181526020018280546110d5906122da565b80156111225780601f106110f757610100808354040283529160200191611122565b820191906000526020600020905b81548152906001019060200180831161110557829003601f168201915b5050505050815260200160038201805461113b906122da565b80601f0160208091040260200160405190810160405280929190818152602001828054611167906122da565b80156111b45780601f10611189576101008083540402835291602001916111b4565b820191906000526020600020905b81548152906001019060200180831161119757829003601f168201915b505050505081526020016004820180546111cd906122da565b80601f01602080910402602001604051908101604052809291908181526020018280546111f9906122da565b80156112465780601f1061121b57610100808354040283529160200191611246565b820191906000526020600020905b81548152906001019060200180831161122957829003601f168201915b505050505081526020016005820160009054906101000a900473ffffffffffffffffffffffffffffffffffffffff1673ffffffffffffffffffffffffffffffffffffffff1673ffffffffffffffffffffffffffffffffffffffff1681525050915050919050565b80600060028111156112c2576112c1611ef7565b5b6003600083815260200190815260200160002060040160149054906101000a900460ff1660028111156112f8576112f7611ef7565b5b14611338576040517f08c379a000000000000000000000000000000000000000000000000000000000815260040161132f90612672565b60405180910390fd5b600080600281111561134d5761134c611ef7565b5b600460003373ffffffffffffffffffffffffffffffffffffffff1673ffffffffffffffffffffffffffffffffffffffff16815260200190815260200160002060009054906101000a900460ff1660028111156113ac576113ab611ef7565b5b146113ec576040517f08c379a00000000000000000000000000000000000000000000000000000000081526004016113e39061228b565b60405180910390fd5b6000600360008581526020019081526020016000209050600081600001540361144a576040517f08c379a0000000000000000000000000000000000000000000000000000000008152600401611441906126de565b60405180910390fd5b6114526104d8565b506040518060c0016040528085815260200182600101548152602001826002015481526020018260030160009054906101000a900473ffffffffffffffffffffffffffffffffffffffff1673ffffffffffffffffffffffffffffffffffffffff1681526020013373ffffffffffffffffffffffffffffffffffffffff1681526020016002808111156114e7576114e6611ef7565b5b8152506003600086815260200190815260200160002060008201518160000155602082015181600101556040820151816002015560608201518160030160006101000a81548173ffffffffffffffffffffffffffffffffffffffff021916908373ffffffffffffffffffffffffffffffffffffffff16021790555060808201518160040160006101000a81548173ffffffffffffffffffffffffffffffffffffffff021916908373ffffffffffffffffffffffffffffffffffffffff16021790555060a08201518160040160146101000a81548160ff021916908360028111156115d4576115d3611ef7565b5b021790555090505050505050565b6115ea611a2f565b60006003600084815260200190815260200160002090506000816000015403611648576040517f08c379a000000000000000000000000000000000000000000000000000000000815260040161163f906126de565b60405180910390fd5b806040518060c00160405290816000820154815260200160018201548152602001600282015481526020016003820160009054906101000a900473ffffffffffffffffffffffffffffffffffffffff1673ffffffffffffffffffffffffffffffffffffffff1673ffffffffffffffffffffffffffffffffffffffff1681526020016004820160009054906101000a900473ffffffffffffffffffffffffffffffffffffffff1673ffffffffffffffffffffffffffffffffffffffff1673ffffffffffffffffffffffffffffffffffffffff1681526020016004820160149054906101000a900460ff16600281111561174357611742611ef7565b5b600281111561175557611754611ef7565b5b81525050915050919050565b600080600281111561177657611775611ef7565b5b600460003373ffffffffffffffffffffffffffffffffffffffff1673ffffffffffffffffffffffffffffffffffffffff16815260200190815260200160002060009054906101000a900460ff1660028111156117d5576117d4611ef7565b5b14611815576040517f08c379a000000000000000000000000000000000000000000000000000000000815260040161180c9061228b565b60405180910390fd5b60006002600085815260200190815260200160002090506000816000015403611873576040517f08c379a000000000000000000000000000000000000000000000000000000000815260040161186a906128f8565b60405180910390fd5b6040518060c0016040528060005481526020018581526020018481526020013373ffffffffffffffffffffffffffffffffffffffff1681526020013373ffffffffffffffffffffffffffffffffffffffff168152602001600060028111156118de576118dd611ef7565b5b815250600360008054815260200190815260200160002060008201518160000155602082015181600101556040820151816002015560608201518160030160006101000a81548173ffffffffffffffffffffffffffffffffffffffff021916908373ffffffffffffffffffffffffffffffffffffffff16021790555060808201518160040160006101000a81548173ffffffffffffffffffffffffffffffffffffffff021916908373ffffffffffffffffffffffffffffffffffffffff16021790555060a08201518160040160146101000a81548160ff021916908360028111156119cc576119cb611ef7565b5b02179055509050506119dc6104d8565b5050505050565b6040518060c001604052806000815260200160608152602001606081526020016060815260200160608152602001600073ffffffffffffffffffffffffffffffffffffffff1681525090565b6040518060c00160405280600081526020016000815260200160008152602001600073ffffffffffffffffffffffffffffffffffffffff168152602001600073ffffffffffffffffffffffffffffffffffffffff16815260200160006002811115611a9d57611a9c611ef7565b5b81525090565b6000604051905090565b600080fd5b600080fd5b600080fd5b600080fd5b6000601f19601f8301169050919050565b7f4e487b7100000000000000000000000000000000000000000000000000000000600052604160045260246000fd5b611b0a82611ac1565b810181811067ffffffffffffffff82111715611b2957611b28611ad2565b5b80604052505050565b6000611b3c611aa3565b9050611b488282611b01565b919050565b600067ffffffffffffffff821115611b6857611b67611ad2565b5b611b7182611ac1565b9050602081019050919050565b82818337600083830152505050565b6000611ba0611b9b84611b4d565b611b32565b905082815260208101848484011115611bbc57611bbb611abc565b5b611bc7848285611b7e565b509392505050565b600082601f830112611be457611be3611ab7565b5b8135611bf4848260208601611b8d565b91505092915050565b60008060008060808587031215611c1757611c16611aad565b5b600085013567ffffffffffffffff811115611c3557611c34611ab2565b5b611c4187828801611bcf565b945050602085013567ffffffffffffffff811115611c6257611c61611ab2565b5b611c6e87828801611bcf565b935050604085013567ffffffffffffffff811115611c8f57611c8e611ab2565b5b611c9b87828801611bcf565b925050606085013567ffffffffffffffff811115611cbc57611cbb611ab2565b5b611cc887828801611bcf565b91505092959194509250565b6000819050919050565b611ce781611cd4565b82525050565b6000602082019050611d026000830184611cde565b92915050565b611d1181611cd4565b8114611d1c57600080fd5b50565b600081359050611d2e81611d08565b92915050565b600060208284031215611d4a57611d49611aad565b5b6000611d5884828501611d1f565b91505092915050565b600081519050919050565b600082825260208201905092915050565b60005b83811015611d9b578082015181840152602081019050611d80565b60008484015250505050565b6000611db282611d61565b611dbc8185611d6c565b9350611dcc818560208601611d7d565b611dd581611ac1565b840191505092915050565b600073ffffffffffffffffffffffffffffffffffffffff82169050919050565b6000611e0b82611de0565b9050919050565b611e1b81611e00565b82525050565b600060c082019050611e366000830189611cde565b8181036020830152611e488188611da7565b90508181036040830152611e5c8187611da7565b90508181036060830152611e708186611da7565b90508181036080830152611e848185611da7565b9050611e9360a0830184611e12565b979650505050505050565b611ea781611e00565b8114611eb257600080fd5b50565b600081359050611ec481611e9e565b92915050565b600060208284031215611ee057611edf611aad565b5b6000611eee84828501611eb5565b91505092915050565b7f4e487b7100000000000000000000000000000000000000000000000000000000600052602160045260246000fd5b60038110611f3757611f36611ef7565b5b50565b6000819050611f4882611f26565b919050565b6000611f5882611f3a565b9050919050565b611f6881611f4d565b82525050565b6000602082019050611f836000830184611f5f565b92915050565b60038110611f9a57611f99611ef7565b5b50565b6000819050611fab82611f89565b919050565b6000611fbb82611f9d565b9050919050565b611fcb81611fb0565b82525050565b600060c082019050611fe66000830189611cde565b611ff36020830188611cde565b6120006040830187611cde565b61200d6060830186611e12565b61201a6080830185611e12565b61202760a0830184611fc2565b979650505050505050565b61203b81611cd4565b82525050565b600082825260208201905092915050565b600061205d82611d61565b6120678185612041565b9350612077818560208601611d7d565b61208081611ac1565b840191505092915050565b61209481611e00565b82525050565b600060c0830160008301516120b26000860182612032565b50602083015184820360208601526120ca8282612052565b915050604083015184820360408601526120e48282612052565b915050606083015184820360608601526120fe8282612052565b915050608083015184820360808601526121188282612052565b91505060a083015161212d60a086018261208b565b508091505092915050565b60006020820190508181036000830152612152818461209a565b905092915050565b61216381611fb0565b82525050565b60c08201600082015161217f6000850182612032565b5060208201516121926020850182612032565b5060408201516121a56040850182612032565b5060608201516121b8606085018261208b565b5060808201516121cb608085018261208b565b5060a08201516121de60a085018261215a565b50505050565b600060c0820190506121f96000830184612169565b92915050565b6000806040838503121561221657612215611aad565b5b600061222485828601611d1f565b925050602061223585828601611d1f565b9150509250929050565b7f554e415554484f52495a454420524f4c45000000000000000000000000000000600082015250565b6000612275601183611d6c565b91506122808261223f565b602082019050919050565b600060208201905081810360008301526122a481612268565b9050919050565b7f4e487b7100000000000000000000000000000000000000000000000000000000600052602260045260246000fd5b600060028204905060018216806122f257607f821691505b602082108103612305576123046122ab565b5b50919050565b60008190508160005260206000209050919050565b60006020601f8301049050919050565b600082821b905092915050565b60006008830261236d7fffffffffffffffffffffffffffffffffffffffffffffffffffffffffffffffff82612330565b6123778683612330565b95508019841693508086168417925050509392505050565b6000819050919050565b60006123b46123af6123aa84611cd4565b61238f565b611cd4565b9050919050565b6000819050919050565b6123ce83612399565b6123e26123da826123bb565b84845461233d565b825550505050565b600090565b6123f76123ea565b6124028184846123c5565b505050565b5b818110156124265761241b6000826123ef565b600181019050612408565b5050565b601f82111561246b5761243c8161230b565b61244584612320565b81016020851015612454578190505b61246861246085612320565b830182612407565b50505b505050565b600082821c905092915050565b600061248e60001984600802612470565b1980831691505092915050565b60006124a7838361247d565b9150826002028217905092915050565b6124c082611d61565b67ffffffffffffffff8111156124d9576124d8611ad2565b5b6124e382546122da565b6124ee82828561242a565b600060209050601f831160018114612521576000841561250f578287015190505b612519858261249b565b865550612581565b601f19841661252f8661230b565b60005b8281101561255757848901518255600182019150602085019450602081019050612532565b868310156125745784890151612570601f89168261247d565b8355505b6001600288020188555050505b505050505050565b7f4e487b7100000000000000000000000000000000000000000000000000000000600052601160045260246000fd5b60006125c382611cd4565b91507fffffffffffffffffffffffffffffffffffffffffffffffffffffffffffffffff82036125f5576125f4612589565b5b600182019050919050565b7f554e415554484f52495a45443a2050524f44554354204e4f54204f4e2053414c60008201527f4500000000000000000000000000000000000000000000000000000000000000602082015250565b600061265c602183611d6c565b915061266782612600565b604082019050919050565b6000602082019050818103600083015261268b8161264f565b9050919050565b7f5448452053414c4520444f4553204e4f54204558495354000000000000000000600082015250565b60006126c8601783611d6c565b91506126d382612692565b602082019050919050565b600060208201905081810360008301526126f7816126bb565b9050919050565b7f54484520505249434520495320544f4f204c4f57000000000000000000000000600082015250565b6000612734601483611d6c565b915061273f826126fe565b602082019050919050565b6000602082019050818103600083015261276381612727565b9050919050565b7f4e487b7100000000000000000000000000000000000000000000000000000000600052601260045260246000fd5b60006127a482611cd4565b91506127af83611cd4565b9250826127bf576127be61276a565b5b828204905092915050565b60006127d582611cd4565b91506127e083611cd4565b92508282026127ee81611cd4565b9150828204841483151761280557612804612589565b5b5092915050565b600061281782611cd4565b915061282283611cd4565b925082820190508082111561283a57612839612589565b5b92915050565b7f5448452050524f4455435420444f4553204e4f54204558495354000000000000600082015250565b6000612876601a83611d6c565b915061288182612840565b602082019050919050565b600060208201905081810360008301526128a581612869565b9050919050565b7f5468652070726f6475637420646f65736e277420657869737400000000000000600082015250565b60006128e2601983611d6c565b91506128ed826128ac565b602082019050919050565b60006020820190508181036000830152612911816128d5565b905091905056fea2646970667358221220b7186d3bf0db7a03499c5ecd00c8dff0eec752ba1cdeaad97b01d02ad82483eb64736f6c63430008180033",
  "linkReferences": {},
  "deployedLinkReferences": {}
}